:020000040800F2
:100000009806002091010008C70A0008F1020008C4
:10001000C50A000843020008D10D000800000000D6
:10002000000000000000000000000000830C000839
:100030004702000800000000C90A0008250D00085A
:10004000AB010008AB010008AB010008810C0008FF
:10005000AB010008AB01000849020008AB01000831
:10006000AB010008AB010008AB0100084502000825
:10007000AB010008AB010008AB010008AB010008B0
:10008000AB010008AB010008AB010008AB010008A0
:10009000AB010008AB010008AB010008AB01000890
:1000A000AB010008AB010008AB010008AB01000880
:1000B000AB010008AB010008AB010008AB01000870
:1000C000AB010008AB010008AB010008AB01000860
:1000D000AB010008AB010008AB010008AB01000850
:1000E000AB010008AB010008AB010008AB01000840
:1000F000AB01000800F002F800F03AF80AA090E81E
:10010000000C82448344AAF10107DA4501D100F0D2
:100110002FF8AFF2090EBAE80F0013F0010F18BF65
:10012000FB1A43F001031847600D0000800D00002A
:10013000103A24BF78C878C1FAD8520724BF30C813
:1001400030C144BF04680C607047000000230024E5
:1001500000250026103A28BF78C1FBD8520728BFD7
:1001600030C148BF0B6070471FB51FBD10B510BD33
:1001700000F031F81146FFF7F7FF00F02BFE00F01A
:100180004FF803B4FFF7F2FF03BC00F053F8000090
:100190000948804709480047FEE7FEE7FEE7FEE71B
:1001A000FEE7FEE7FEE7FEE7FEE7FEE70448054957
:1001B000054A064B70470000290D0008F5000008AD
:1001C0009800002098060020980200209802002045
:1001D000704770477047754600F028F8AE46050036
:1001E0006946534620F00700854618B020B5FFF752
:1001F000DDFFBDE820404FF000064FF000074FF054
:1002000000084FF0000B21F00701AC46ACE8C00934
:10021000ACE8C009ACE8C009ACE8C0098D4670473D
:100220000446AFF300802046FFF7ABFF004870475D
:100230003800002001491820ABBEFEE7260002006E
:100240007047FEE77047704770470000F0B5002325
:1002500001244FF0030E00BF0D6804FA03F21540AD
:10026000954222D106685D000EFA05FC0F7926EA58
:100270000C06AF40374307600E79012E01D0022EE5
:100280000CD186684F7926EA0C06AF403743876069
:10029000868896438A799A4032438280C668CA79B2
:1002A00026EA0C06AA403243C2605B1C102BD3D353
:1002B000F0BD4B07DB0E9A40C90810B500EB81007A
:1002C000016A0F249C40A1430162016A114301624B
:1002D00010BD018370474FF6FF710160002101716D
:1002E00041718171C1717047828A4A408282704730
:1002F000FEE70000044A136823F4783313601368A0
:100300000843034313607047042400400149086018
:10031000704700000080044204490A6822F4E05259
:100320000A600A6802430A60704700000424004023
:1003300070B50078002435286CD018DC302869D0DE
:100340000CDC2A284CD004DC202835D0252822D1EA
:100350005AE02D2850D02F281DD150E0312859D0F7
:10036000322857D0332855D0342814D152E06D2884
:100370003CD008DC36284DD037284BD0382849D01F
:10038000392808D146E06E2833D0B02839D0B528B6
:1003900029D0FF283BD0A0F14106224D1A2E03D2CE
:1003A00005EB400434F8824CA0F161061A2E03D20A
:1003B00005EB400030F8C24C09B144F002040AB128
:1003C00044F020040C21002024FA01F202F00F0274
:1003D0001A54091F401CC0B2C9B20428F4D370BD1E
:1003E0004AF2DD04E8E746F28404E5E74BF2102424
:1003F000E2E742F21024DFE74FF42044DCE7C024B8
:10040000DAE74FF46C44D7E74FF43344D4E74FF6C0
:10041000DD74D1E7034C343404EB400030F8604C19
:10042000CAE70000400E000804490A6822F460721E
:100430000A600A6802430A60704700000424004012
:1004400010B5042000F0D0FA0028FAD1064902467F
:1004500001EB8003C3F81424401C0F28F8D9BDE831
:10046000104000F0FDBA0000002000407CB50121E2
:100470003F2000F02BFB6846FFF72DFF48F20E707F
:10048000564D022400908DF8044069462846FFF737
:10049000DDFE0B2201212846FFF70BFF0B22022174
:1004A0002846FFF706FF0B2203212846FFF701FF2E
:1004B0000B2208212846FFF7FCFE0B2209212846C3
:1004C000FFF7F7FE0B220A212846FFF7F2FE0B2268
:1004D0000F212846FFF7EDFE4FF63870404D009093
:1004E0008DF8044069462846FFF7B0FE0B22032131
:1004F0002846FFF7DEFE0B2204212846FFF7D9FE2F
:100500000B2205212846FFF7D4FE0B22082128469E
:10051000FFF7CFFE0B2209212846FFF7CAFE0B2268
:100520000A212846FFF7C5FE0B2211462846FFF791
:10053000C0FE0B220C212846FFF7BBFE0B220D212B
:100540002846FFF7B6FE0B220E212846FFF7B1FE24
:100550000B220F212846FFF7ACFE8DF8044040F631
:10056000CF70204C009069462046FFF76FFE0B22AB
:1005700000212046FFF79DFE0B2201212046FFF7B8
:1005800098FE0B2202212046FFF793FE0B22032147
:100590002046FFF78EFE0B2206212046FFF789FE3C
:1005A0000B2207212046FFF784FE0B22082120465C
:1005B000FFF77FFE0B2209212046FFF77AFE0B2270
:1005C0000A212046FFF775FE0B2211462046FFF751
:1005D00070FE00213F2000F079FA7CBD000002404F
:1005E000000402400008024070B5054601240420C2
:1005F00000F0FAF90028FAD108E00022234611465B
:10060000284600F03FF8641CE4B26D1C287808B15D
:10061000082CF2D3BDE8704000F022BA00B585B0D6
:1006200000204FF47011CDE900010C21029140210E
:10063000CDE90310684600F0E1F9012000F0FEF971
:100640004FF48050FFF768FE0020FFF7EDFE4020DA
:1006500000F0FAF900F00CFA0120FFF757FE012034
:1006600000F0C2F90028FAD0102000F0BDF90028EF
:10067000FAD04FF480410020FFF73CFEFFF7E0FE88
:1006800005B000BDF8B51C466B46FFF751FED248D9
:10069000D149D14AD04B083010311832072C7DD2C5
:1006A000DFE804F07C043B89CAFDFC001D68CB4CEC
:1006B00025401D600568254005600D6825400D60DA
:1006C0001568254015609DF8004004F0030504F00E
:1006D0000C0445EA84641D682C431C609DF80130BD
:1006E00003F0030403F00C0344EA83630468234328
:1006F00003609DF8020000F0030300F00C0043EAE1
:1007000080600B68184308609DF8030000F0030147
:1007100000F00C0041EA80608AE01D68B04C254082
:100720001D600568254005600D6825400D60156851
:10073000254015601D689DF8004004F00C0645EA50
:10074000066504F00206B60104F0010446EA8404DA
:1007500025431D6004689DF8013003F00C0544EA50
:10076000056403F00205AD0103F0010345EA8303CC
:100770001C4304600B689DF8020000F00C0443EA7F
:10078000046300F00204A40100F0010044EA8000C8
:1007900003430B6011689DF8030000E018E100F0CE
:1007A0000C0341EA036100F002039B0100F0010029
:1007B00043EA80000AE11C6824F003241C600468FA
:1007C00024F0032404600C6824F003240C601468F3
:1007D00024F0032414609DF8004004F00C05AD05DE
:1007E00004F0030445EA04241D682C431C609DF8B2
:1007F000013003F00C04A40503F0030344EA0323CF
:100800000468234303609DF8020000F00C039B057D
:1008100000F0030043EA00200B68184308609DF8CD
:10082000030000F00C01890500F0030041EA0020FC
:10083000116808431060CBE01D686A4C25401D60BC
:100840000568254005600D6825400D601568254048
:1008500015609DF8004004F00C05AD0404F003049D
:1008600045EA84241D682C431C609DF8013003F088
:100870000C04A40403F0030344EA83230468234321
:1008800003609DF8020000F00C039B0400F00300DD
:1008900043EA80200B681843086001E048E009E063
:1008A0009DF8030000F00C01890400F0030041EA08
:1008B0008020BDE71C6824F443241C60046824F4F1
:1008C000432404600C6824F441240C60146824F46C
:1008D000412414609DF8004004F00C052D0404F040
:1008E000030445EA04341D682C431C609DF8013064
:1008F00003F00C04240403F0030344EA0333046804
:10090000234303609DF8020000F00C031B0400F079
:10091000010043EA00300B68184308609DF80300AB
:1009200000F00C01090400F0010041EA00307FE70B
:100930001C6824F470341C60046824F4703404606F
:100940000C6824F470340C60146824F4703414605F
:100950001D689DF8004004F0040645EAC63504F021
:100960000806760304F0030446EA843425431D6038
:1009700004689DF8013003F0040544EAC53403F02F
:1009800008056D0303F0030345EA83331C43046049
:100990000B689DF8020000F0040443EAC43300F041
:1009A0000804640300F0010044EA803003430B6054
:1009B00011689DF8030000F0040341EAC33100F020
:1009C00008035B0300F0010043EA8030014311603B
:1009D00000F05CF8F8BD000014240040FCFFFFCFDD
:1009E00003FFFFF3FFF3CFFF034A01460020126825
:1009F0000A4200D0012070470824004010B5044688
:100A00000D48016821F07F710160D4E900121143A3
:100A100002681143016000F02BF80748001F0168CD
:100A200021F07E0101600168A2681143D4E903232B
:100A30001A431143016010BD042400400149C861FC
:100A4000704700000080044204490A6822F07002E6
:100A50000A600A6802430A607047000004240040EC
:100A600002490120C1F808017047000000800442DB
:100A7000054A0020D3131168401C01F02001984260
:100A800001D00029F7D07047082400400B4810B56A
:100A9000016821F420410160084908310A6822F404
:100AA00020420A600368064A147843EA043303606C
:100AB0000868527840EA0230086010BD24240040E3
:100AC0000D000020FEE7704770470000044A00292F
:100AD000116801D0014300E08143116070470000BC
:100AE0001C380240044A0029116801D0014300E08B
:100AF00081431160704700002438024010B500F0B7
:100B00001DF8012000F0ACF8212000F08DF800283D
:100B1000FAD0012000F0AAF8002000F099F8312066
:100B200000F082F800B1FEE701210220FFF7CEFFBE
:100B30000121BDE810404802FFF7D4BF0D4801680D
:100B400041F4807101600B4908310A680A4B1A4070
:100B50000A600268094B1A400260026822F480228F
:100B60000260086820F47D0008600020091D08600C
:100B700070470000003802400CC0FF88FEFFFEEE08
:100B800030B5254A1168A2F1040411F00C034FF4AA
:100B9000004105D0042B09D0082B09D00C2B09D01B
:100BA0002368C3F342335B1C994018E01B4916E0ED
:100BB0001B4914E01168136801F47011194C03F417
:100BC000400304EB91410978012404EB935314682A
:100BD00014F4803F1DD0124C6143B1FBF3F101606E
:100BE00011680F2303EA11110E4B09335C5C016895
:100BF000E14041601468072505EA14241C5D21FAD0
:100C000004F48460126805EAD2229A5CD140C16083
:100C100030BD024CE0E70000083802400024F40038
:100C200000127A000F000020014600204A09012A24
:100C300009D0064A126801F01F0101238B401342BC
:100C400000D001207047014A343AF3E734380240BB
:100C5000024900220A700870704700000238024002
:100C6000014908607047000000004742034A1168CC
:100C700021F0030101431160704700000838024071
:100C8000704770470CB5002123480191009102681C
:100C900042F0010202604FF4A062036813F0020305
:100CA000009302D1019B9342F7D10068800730D5B1
:100CB000012000901948016821F0010101600168DC
:100CC00021F002010160016821F004010160124875
:100CD0002430016841F080510160C1141048016066
:100CE0004168C906FCD40C480830016801600168FD
:100CF000016001680160016821F003010160016881
:100D000041F0010101600168C1F381010129FAD1BB
:100D10000CBD00910CBD000000380240003C0240B8
:100D20000070004000F04AB8104810B5016841F466
:100D3000807101600D4908310A680D4B1A400A6044
:100D400002680C4B1A400260026822F480220260A2
:100D5000086820F47D000860091D00200860FFF786
:100D600091FF05494FF00060086010BD0038024057
:100D70000CC0FF88FEFFFEEE08ED00E010B50D4848
:100D8000FFF7FEFE0B484FF4FA714068B0FBF1F03C
:100D9000B0F1807F0DD220F07F414FF0E020491E5E
:100DA0004161054AF02182F8141D0021816107216B
:100DB000016110BD280000200FE000E00348016839
:100DC000002902D00168491E016070470000002020
:100DD000FEE70000FFF792FEFFF7D0FFFFF746FBAC
:100DE000FFF71CFC11A0FFF7FFFB4FF0E0200169AB
:100DF00021F0030101610F48C0210F4C0160012166
:100E0000017101462046FFF721FAC0212046FFF775
:100E100060FA2546094CC0212846FFF765FA2246AC
:100E20000221491C9142FCDBF5E70000526F686922
:100E300074390000040000200004024090D0030038
:100E400000FE1467001D1447009D009C003F00FA3F
:100E50001400005341980019485A095A005F00FCD9
:100E6000015F01FC00AF1404005BC018815AC90087
:100E70005800C005005F004200F5006700EA00AFBF
:100E800000BF004600FF00EFA80E00080000002091
:100E90002800000030010008D00E000828000020C3
:100EA000700600004C010008000000000000000077
:100EB00000000000000000030406080C1018203099
:100EC00000000000010203040102030406070809F0
:04000005080000F5FA
:00000001FF
