:020000040800F2
:100000009806002091010008C3020008BF02000802
:10001000C1020008430200089D050008000000001E
:100020000000000000000000000000005F04000865
:100030004702000800000000C50200080105000892
:10004000AB010008AB010008AB0100085D0400082B
:10005000AB010008AB01000849020008AB01000831
:10006000AB010008AB010008AB0100084502000825
:10007000AB010008AB010008AB010008AB010008B0
:10008000AB010008AB010008AB010008AB010008A0
:10009000AB010008AB010008AB010008AB01000890
:1000A000AB010008AB010008AB010008AB01000880
:1000B000AB010008AB010008AB010008AB01000870
:1000C000AB010008AB010008AB010008AB01000860
:1000D000AB010008AB010008AB010008AB01000850
:1000E000AB010008AB010008AB010008AB01000840
:1000F000AB01000800F002F800F03AF80AA090E81E
:10010000000C82448344AAF10107DA4501D100F0D2
:100110002FF8AFF2090EBAE80F0013F0010F18BF65
:10012000FB1A43F001031847A8040000C8040000AC
:10013000103A24BF78C878C1FAD8520724BF30C813
:1001400030C144BF04680C607047000000230024E5
:1001500000250026103A28BF78C1FBD8520728BFD7
:1001600030C148BF0B6070471FB51FBD10B510BD33
:1001700000F031F81146FFF7F7FF00F011FA00F038
:100180004FF803B4FFF7F2FF03BC00F053F8000090
:100190000948804709480047FEE7FEE7FEE7FEE71B
:1001A000FEE7FEE7FEE7FEE7FEE7FEE70448054957
:1001B000054A064B7047000011050008F5000008CD
:1001C0009800002098060020980200209802002045
:1001D000704770477047754600F028F8AE46050036
:1001E0006946534620F00700854618B020B5FFF752
:1001F000DDFFBDE820404FF000064FF000074FF054
:1002000000084FF0000B21F00701AC46ACE8C00934
:10021000ACE8C009ACE8C009ACE8C0098D4670473D
:100220000446AFF300802046FFF7ABFF004870475D
:100230003400002001491820ABBEFEE72600020072
:100240007047FEE77047704770470000F0B5002325
:1002500001244FF0030E00BF0D6804FA03F21540AD
:10026000954222D106685D000EFA05FC0F7926EA58
:100270000C06AF40374307600E79012E01D0022EE5
:100280000CD186684F7926EA0C06AF403743876069
:10029000868896438A799A4032438280C668CA79B2
:1002A00026EA0C06AA403243C2605B1C102BD3D353
:1002B000F0BD01837047828A4A4082827047FEE720
:1002C000FEE7704770470000044A0029116801D01A
:1002D000014300E081431160704700001C38024078
:1002E00010B500F019F8012000F0A8F8212000F066
:1002F00089F80028FAD0012000F0A6F8002000F0CC
:1003000095F8312000F07EF800B1FEE70121BDE84C
:1003100010400220FFF7D8BF0D48016841F48071FA
:1003200001600B4908310A680A4B1A400A600268EA
:10033000094B1A400260026822F4802202600868B9
:1003400020F47D0008600020091D0860704700004F
:10035000003802400CC0FF88FEFFFEEE30B5254A93
:100360001168A2F1040411F00C034FF4004105D010
:10037000042B09D0082B09D00C2B09D02368C3F318
:1003800042335B1C994018E01B4916E01B4914E0FE
:100390001168136801F47011194C03F4400304EB65
:1003A00091410978012404EB9353146814F4803FBD
:1003B0001DD0124C6143B1FBF3F1016011680F23B2
:1003C00003EA11110E4B09335C5C0168E1404160A6
:1003D0001468072505EA14241C5D21FA04F48460DE
:1003E000126805EAD2229A5CD140C16030BD024C4D
:1003F000E0E70000083802400024F40000127A0010
:1004000008000020014600204A09012A09D0064AB6
:10041000126801F01F0101238B40134200D001201C
:100420007047014A343AF3E7343802400249002267
:100430000A700870704700000238024001490860E5
:100440007047000000004742034A116821F0030191
:100450000143116070470000083802407047704740
:100460000CB50021234801910091026842F001027D
:1004700002604FF4A062036813F00203009302D1FC
:10048000019B9342F7D10068800730D5012000908E
:100490001948016821F001010160016821F00201A1
:1004A0000160016821F004010160124824300168F4
:1004B00041F080510160C114104801604168C906D3
:1004C000FCD40C48083001680160016801600168D3
:1004D0000160016821F003010160016841F0010140
:1004E00001600168C1F381010129FAD10CBD0091BD
:1004F0000CBD000000380240003C0240007000408B
:10050000AFF30080C0210148FFF7D5BE00040240D0
:10051000104810B5016841F4807101600D4908313F
:100520000A680D4B1A400A6002680C4B1A400260C0
:10053000026822F480220260086820F47D000860CE
:10054000091D00200860FFF78BFF05494FF0006090
:10055000086010BD003802400CC0FF88FEFFFEEEB0
:1005600008ED00E010B50B48FFF7F8FE09484068B9
:10057000B0F1807F0DD220F07F414FF0E020491E86
:100580004161054AF02182F8141D00218161072193
:10059000016110BD240000200FE000E0FEE7000034
:1005A000FFF79EFEFFF7DEFF0748C021074C016002
:1005B0000121017101462046FFF748FEC021204677
:1005C000FFF777FEFEE70000000000200004024075
:1005D000F0050008000000202400000030010008A1
:1005E0001406000824000020740600004C010008D6
:1005F0000000000000000000030406080C10182092
:100600003000000000010203040102030406070891
:0406100009000000DD
:04000005080000F5FA
:00000001FF
