:020000040800F2
:100000006006002075010008A7020008A30200088E
:10001000A5020008270200080504000800000000EF
:100020000000000000000000000000000B030008BA
:100030002B02000800000000A9020008AD03000820
:100040008F0100088F0100088F01000809030008D4
:100050008F0100088F0100082D0200088F010008A1
:100060008F0100088F0100088F0100082902000895
:100070008F0100088F0100088F0100088F01000820
:100080008F0100088F0100088F0100088F01000810
:100090008F0100088F0100088F0100088F01000800
:1000A0008F0100088F0100088F0100088F010008F0
:1000B0008F0100088F0100088F0100088F010008E0
:1000C0008F0100088F0100088F0100088F010008D0
:1000D0008F0100088F0100088F0100088F010008C0
:1000E0008F0100088F0100088F0100088F010008B0
:1000F0008F01000800F002F800F02CF80AA090E848
:10010000000C82448344AAF10107DA4501D100F0D2
:1001100021F8AFF2090EBAE80F0013F0010F18BF73
:10012000FB1A43F0010318472C0300003C030000B6
:100130000023002400250026103A28BF78C1FBD8F0
:10014000520728BF30C148BF0B6070471FB51FBDA5
:1001500010B510BD00F031F81146FFF7F7FF00F0C1
:1001600053F900F04FF803B4FFF7F2FF03BC00F0BF
:1001700053F800000948804709480047FEE7FEE7BA
:10018000FEE7FEE7FEE7FEE7FEE7FEE7FEE7FEE747
:1001900004480549054A064B70470000B1030008B2
:1001A000F5000008600000206006002060020020CA
:1001B00060020020704770477047754600F028F8CD
:1001C000AE4605006946534620F00700854618B044
:1001D00020B5FFF7DDFFBDE820404FF000064FF0EF
:1001E00000074FF000084FF0000B21F00701AC466C
:1001F000ACE8C009ACE8C009ACE8C009ACE8C0098B
:100200008D4670470446AFF300802046FFF7ABFFF2
:10021000004870470000002001491820ABBEFEE7EF
:10022000260002007047FEE77047704770470000E5
:10023000F0B5002301244FF0030E00BF0D6804FA4F
:1002400003F21540954222D106685D000EFA05FCC6
:100250000F7926EA0C06AF40374307600E79012E6E
:1002600001D0022E0CD186684F7926EA0C06AF40E9
:1002700037438760868896438A799A4032438280E2
:10028000C668CA7926EA0C06AA403243C2605B1CE3
:10029000102BD3D3F0BD01837047828A4A408282FB
:1002A0007047FEE7FEE7704770470000044A0029E8
:1002B000116801D0014300E08143116070470000E4
:1002C0001C3802400D48016841F4807101600B49FF
:1002D00008310A680A4B1A400A600268094B1A4042
:1002E0000260026822F480220260086820F47D0027
:1002F00008600020091D08607047000000380240B7
:100300000CC0FF88FEFFFEEE704770470CB5002161
:10031000234801910091026842F0010202604FF40B
:10032000A062036813F00203009302D1019B934281
:10033000F7D10068800730D5012000901948016886
:1003400021F001010160016821F0020101600168F2
:1003500021F00401016012482430016841F080510D
:100360000160C114104801604168C906FCD40C4802
:10037000083001680160016801600168016001687E
:1003800021F003010160016841F001010160016891
:10039000C1F381010129FAD10CBD00910CBD00000F
:1003A00000380240003C02400070004070470000EE
:1003B000104810B5016841F4807101600D490831A1
:1003C0000A680D4B1A400A6002680C4B1A40026022
:1003D000026822F480220260086820F47D00086030
:1003E000091D00200860FFF791FF05494FF00060EC
:1003F000086010BD003802400CC0FF88FEFFFEEE12
:1004000008ED00E0FEE700001CB5FFF75BFF0121EF
:100410000220FFF74BFFC020009001200B4C8DF80D
:10042000040069462046FFF703FFC0212046FFF77E
:1004300032FF2546064CC0212846FFF72EFF2046F6
:100440000221491C8142FCDBF5E700000004024068
:1004500090D0030064040008000000206006000043
:04046000300100085F
:04000005080000F5FA
:00000001FF
